:020000040800F2
:10000000E013002001010008D10B0008F5080008EA
:10001000CD0B000801060008DB1C000800000000F2
:10002000000000000000000000000000691400084B
:100030000506000800000000111300080316000860
:100040001B0100081B0100081B0100081B01000820
:100050001B0100081B0100081B0100081B01000810
:100060001B0100081B0100081B0100081B01000800
:100070001B0100081B0100081B0100081B010008F0
:100080001B0100081B0100081B0100081B010008E0
:100090001B0100081B0100081B0100081B010008D0
:1000A0001B0100081B0100081B0100081B010008C0
:1000B0001B01000865160008811600081B010008D6
:1000C0001B0100081B0100081B0100081B010008A0
:1000D0001B010008D91800081B010008F5190008C9
:1000E0001B0100081B0100081B010008DFF80CD0F1
:1000F00000F066F80048004735210008E0130020B2
:100100000648804706480047FEE7FEE7FEE7FEE7B1
:10011000FEE7FEE7FEE7FEE7FEE7FEE7051600085E
:10012000ED00000830B505462A460B4612F8010BD3
:1001300013F8014B08B1A042F8D01CB1002802D03E
:100140006D1CF1E7284630BDCAB2401E10F8011FF1
:100150008A4202D00029F9D1002070472DE9F05FD2
:100160000546002092469B46884606468146402426
:100170001BE0284641464746224600F042F85346D7
:100180005A46C01A914110D311461846224600F033
:1001900029F82D1A67EB01084F462246012000215D
:1001A00000F020F817EB00094E41201EA4F10104D5
:1001B000DFDC484631462A464346BDE8F09F000052
:1001C000064C074D06E0E06840F0010394E80700A4
:1001D00098471034AC42F6D3FFF78CFFC0250008D7
:1001E000E0250008202A04DB203A00FA02F1002072
:1001F00070479140C2F1200320FA03F31943904065
:100200007047202A04DB203A21FA02F000217047CF
:1002100021FA02F3D040C2F120029140084319466E
:10022000704770B58C1810F8015B15F0070301D109
:1002300010F8013B2A1106D110F8012B03E010F849
:10024000016B01F8016B5B1EF9D12B0705D400236C
:10025000521E0DD401F8013BFAE710F8013BCB1A0E
:10026000921C03E013F8015B01F8015B521EF9D503
:10027000A142D8D3002070BDF8B5002700251FE1AA
:10028000052F28D2DFE807F003285280A700701C52
:10029000C6B28DA20221002000F06CFD00F00CFF20
:1002A0000446ACB9012000F0E4FE044664B98BA218
:1002B0000221002000F05EFD8DA20421002000F04C
:1002C00059FD0026012706E0204601F085F902E0ED
:1002D000204601F081F9EBE0701CC6B289A2022130
:1002E000002000F047FD82A20421002000F042FD22
:1002F00000F0E2FE0446ACB9022000F0BAFE04466B
:1003000064B976A20221002000F034FD78A2042115
:10031000002000F02FFD0026022706E0204601F015
:100320005BF902E0204601F057F9C1E07AA2022110
:10033000002000F01FFD6EA20421002000F01AFD35
:1003400000F01FFF04465CB978A20221002000F0F3
:1003500011FD67A20421002000F00CFD03270EE030
:1003600077A20221002000F005FD61A204210020F7
:1003700000F000FD204601F02FF9002600274FF481
:10038000FA7001F0B1FE93E072A20221002000F0A9
:10039000F1FC57A20421002000F0ECFC4FF4FA70AD
:1003A00001F0A2FE00F00AFF04465CB96EA2022131
:1003B000002000F0DFFC4EA20421002000F0DAFC57
:1003C000042703E00027204601F006F94FF47A7075
:1003D00001F08AFE6CE069A20021084600F0CAFC28
:1003E0006AA20221002000F0C5FC6DA204210020B9
:1003F00000F0C0FC26E0002000F07AFB6D49087098
:1004000008460078022805D100200870002D01DD83
:10041000681EC5B267480078042806D100206549E7
:100420000870632D01DA681CC5B263A2062128207A
:1004300000F0A0FC012002232A4606210090412062
:1004400000F066FD5B4800780328D4D100205949AC
:1004500008702946022000F0CEFE04460CBB00F0D6
:10046000FBFB56A20221002000F084FC20A2042104
:10047000002000F07FFC40F2DC5001F035FE00F07F
:10048000EBFB53A20021062000F074FC54A20321D0
:10049000062000F06FFC56A20521062000F06AFC41
:1004A000F8BD00F0D9FB0027204601F095F800BF09
:1004B00000BF4FF4C87001F017FE0A2E00D100E013
:1004C000DEE600BF00BFEBE720202020C7EBB0B482
:1004D000CAD6D6B8202020200000000020202020EE
:1004E000D6B8CEC6D5FDB3A3202020200000000042
:1004F00020202020202020202020202020202020FC
:1005000000000000202020C7EBD4D9B0B4D2BBB487
:10051000CE202020000000002020B6D4B1C8C1BDEC
:10052000B4CED6B8CEC62020000000002020202067
:10053000B6D4B1C8B3C9B9A620202020000000005D
:1005400020202020B6D4B1C8CAA7B0DC20202020AB
:10055000000000002020C9FAB3C9D6B8CEC6C4A393
:10056000B0E5202000000000C9FAB3C9D6B8CEC655
:10057000C4A3B0E5B3C9B9A60000000020B0B44BD5
:1005800034BCD32CB0B44B32BCF52000202020204A
:10059000B0B44B33B1A3B4E620202020000000000B
:1005A0002020303D3C204944203C3D39392020204A
:1005B00000000000B80C002049443D002020C2BCCF
:1005C000C8EBD6B8CEC6B3C9B9A62020000000003B
:1005D0005369676E20696E2053797374656D0000EE
:1005E0004B352046696E6765727072696E740000E3
:1005F0004B362048756D616E2046616365000000D2
:1006000000BFFEE77047000038B5002442A2002179
:10061000084600F0AFFB45A20221002000F0AAFB33
:1006200047A20421002000F0A5FB46E0002000F0D6
:100630005FFA4849087008460078022805D1002072
:100640000870002C01DD601E84B242480078042846
:1006500006D100203F490870632C01DA601C84B287
:100660003C480078012800D141E03A48007805284C
:1006700016D100203749087000F0DEFC05463DB970
:1006800000F0EAFA34A20221002000F073FB02E03D
:10069000284600F0A1FF40F2DC5001F025FD26E0E5
:1006A00032A20621282000F065FB01200223224609
:1006B00006210090412000F02BFC264800780328FA
:1006C000B4D10121204600F081FC05463DB900F07F
:1006D000C3FA27A20221002000F04CFB02E02846CA
:1006E00000F07AFF40F2DC5001F0FEFC00BF00F0A9
:1006F000B3FA24A20021062000F03CFB25A203212E
:10070000062000F037FB27A20521062000F032FB6F
:1007100000201049087038BD4B34BCD3204B32BC8C
:10072000F5204B33C8B7C8CF0000000020204B3560
:10073000C7E5BFD5D6B8CEC6BFE220200000000076
:100740004B31B7B5BBD820303D3C49443C3D3939ED
:1007500000000000B80C002020C7E5BFD5D6B8CEF9
:10076000C6BFE2B3C9B9A6200000000049443D005D
:100770002020C9BEB3FDD6B8CEC6B3C9B9A62020C5
:10078000000000005369676E20696E20537973740E
:10079000656D00004B352046696E67657270726941
:1007A0006E7400004B362048756D616E20466163A3
:1007B00065000000044900E0521C11F8013B002BC9
:1007C000FAD1500870470000E80B00202DE9F041F5
:1007D000024600250026002000230024002791F86F
:1007E00003C00CF00F0591F803C00CF0100CBCF125
:1007F000000F03D091F802C04CEA050591F800C043
:10080000BCF1000F31D0146800202BE04FF0010C38
:100810000CFA00F3B1F800C00CEA03069E4220D1A6
:1008200083004FF00F0C0CFA03F7BC4305FA03FCEE
:100830004CEA040491F803C0BCF1280F06D14FF034
:10084000010C0CFA00FCC2F814C00AE091F803C0D5
:10085000BCF1480F05D14FF0010C0CFA00FCC2F8B6
:1008600010C0401C0828D1D31460B1F800C0BCF1FE
:10087000FF0F34DD546800202EE000F1080C4FF02B
:10088000010808FA0CF3B1F800C00CEA03069E4216
:1008900021D183004FF00F0C0CFA03F7BC4305FA8B
:1008A00003FC4CEA040491F803C0BCF1280F05D105
:1008B00000F1080C08FA0CF8C2F8148091F803C093
:1008C000BCF1480F07D100F1080C4FF0010808FAFD
:1008D0000CF8C2F81080401C0828CED35460BDE844
:1008E000F0810246002093680B400BB1012000E02C
:1008F0000020704700BFFEE7002001E0411CC8B2A5
:100900000A28FBDB7047000008B50121082000F031
:1009100021FD4FF48070ADF8000003208DF8020037
:1009200014208DF8030069460648FFF74FFF4FF487
:100930000070ADF8000069460248FFF747FF00F07D
:100940001DF808BD000C014010B5012009490860E0
:100950000949C1F8A001FFF7CFFF00200549086051
:10096000FFF7CAFF00200449C1F8A001FFF7C4FF48
:1009700010BD0000A48121420080214210B500205A
:100980000549086001200549C1F8A001FFF7B4FF3F
:1009900001200149086010BDA4812142008021424C
:1009A00010B501200D490860FFF7A6FF01200C4992
:1009B000C1F8A001FFF7A0FF4FF400710948FFF74D
:1009C00090FF08B1012400E0002400200349091F22
:1009D0000860FFF791FF204610BD0000A48121426E
:1009E00000802142000C01407CB50546EF208DF8C7
:1009F000000001208DF801001A480068000E8DF8F3
:100A0000020018480068000C8DF8030015480088A3
:100A1000000A8DF80400134800788DF805000720BF
:100A20008DF8060000208DF807000F49088012E0BD
:100A3000012001F059FB0C48008800F4004050B13F
:100A400000200949088069460848FFF76BFB044607
:100A50000CB120467CBD681E80B20500E8D100BF05
:100A6000F8E70000AC0C0020BA0C0020BC0C002001
:100A700008B501210C2000F06DFC0120ADF800004C
:100A800048208DF8030069461748FFF79FFE0220B3
:100A9000ADF8000048208DF8030069461248FFF7C2
:100AA00095FE4FF48050ADF8000048208DF803000B
:100AB00069460E48FFF78AFE4FF40050ADF800007B
:100AC00048208DF8030069460848FFF77FFE4FF481
:100AD0008040ADF8000048208DF8030069460348C7
:100AE000FFF774FE08BD000000080140000C014043
:100AF00010B5044614B101202A490870294800782D
:100B0000002833D02848006870B12748001D0068CD
:100B100050B12648006838B12448001D006818B15B
:100B200022480830006808BB0A2001F0DDFA0020E6
:100B30001C4908701C48006808B9012010BD1A48FB
:100B4000001D006808B90220F8E71848006808B9D5
:100B50000320F3E71548001D006808B90420EDE7FD
:100B6000124808300068D0B90520E7E70E48006851
:100B7000012814D10C48001D006801280FD10B4832
:100B8000006801280BD10948001D0068012806D122
:100B9000064808300068012801D102490870002089
:100BA000CCE70000B70C0020000121423081214237
:100BB00000BF0549098801F040010029F9D0024928
:100BC000091D0880704700000048004000BFFEE794
:100BD0007047000070B5002100230F22C47804B3D1
:100BE000154C246804F4E064C4F5E064210AC1F102
:100BF0000403CA40447804FA03F184781440214382
:100C000009010E4C0678A155047804F01F05012453
:100C1000AC4005786D11AD0005F1E025C5F8004147
:100C200009E0047804F01F050124AC40044D067867
:100C3000761145F8264070BD0CED00E000E400E0C0
:100C400080E100E002490143024A11607047000060
:100C50000000FA050CED00E010B5002000F001F8EE
:100C600010BD70B50646002415E004F1B001C8B20D
:100C700001F062F8002001F05FF8102001F05CF84C
:100C8000002504E0304601F06DF8681CC5B2822DE5
:100C9000F8DB601CC4B2082CE7DB70BD10B5FFF7B1
:100CA00033FEAE2001F048F8002001F045F8102096
:100CB00001F042F8402001F03FF8B02001F03CF88C
:100CC000812001F039F8FF2001F036F8A12001F071
:100CD00033F8A62001F030F8A82001F02DF83F20CD
:100CE00001F02AF8C82001F027F8D32001F024F8F9
:100CF000002001F021F8D52001F01EF8802001F03D
:100D00001BF8D82001F018F8052001F015F8D920BB
:100D100001F012F8F12001F00FF8DA2001F00CF8E0
:100D2000122001F009F8DB2001F006F8302001F074
:100D300003F88D2001F000F8142000F0FDFFAF2033
:100D400000F0FAFF10BD70B504460D4605F1B00184
:100D5000C8B200F0F1FFA11CC1F3031141F0100073
:100D600000F0EAFFA11C01F00F0141F0010000F0CA
:100D7000E3FF70BD2DE9F04707468846164600257B
:100D800080E03078A02843DD00253AE0702F04DDB4
:100D9000002708F1020000F0FF0830783C4911F804
:100DA000151088422CD17078012101EB4501384A99
:100DB000515C884224D141463846FFF7C4FF0024E5
:100DC00006E004EB4511334A505C00F0CBFF641C95
:100DD000102CF6D308F10100C1B23846FFF7B3FF7B
:100DE000002407E004EB451110312A4A505C00F062
:100DF000B9FF641C102CF5D307F11000C7B204E052
:100E00006D1C254800688542C0D300BFB61C39E080
:100E10007A2F04DD002708F1020000F0FF08317886
:100E20001E48FFF791F98146B9F1000F29D04146DC
:100E30003846FFF788FF002409E099F800102039B0
:100E400004EB0111164A505C00F08CFF641C082C66
:100E5000F3D308F10100C1B23846FFF774FF002454
:100E60000AE099F80010203904EB011108310C4A0E
:100E7000505C00F077FF641C082CF2D307F10800E7
:100E8000C7B2761C307800287FF47BAFBDE8F087CE
:100E9000E80B002028060020A80C0020450C0020AC
:100EA000380000202DE9F04107460E469046002507
:100EB0000024A8F12000C5B2812F02DD0027B01C5C
:100EC000C6B231463846FFF73EFF002407E004EB88
:100ED00005110E4A505C00F045FF601CC4B2082C9E
:100EE000F5DB701CC1B23846FFF72DFF002408E087
:100EF00004EB05110831054A505C00F033FF601C1B
:100F0000C4B2082CF4DBBDE8F081000038000020FA
:100F10002DE9F0470546894690461E46DDF820A09B
:100F200000242FE0301B401EC1B20A2001F092F9CC
:100F3000B8FBF0F00A21B0FBF1F201FB1207A7B9F0
:100F4000BAF1000F08D0082101FB0451C8B23022C9
:100F50004946FFF7A7FF07E0082101FB0451C8B28B
:100F600020224946FFF79EFF0AE007F13001CAB28E
:100F7000082101FB0451C8B24946FFF793FF00BFA7
:100F8000601CC4B2B442CDDBBDE8F08710B5FFF7FA
:100F900063FE0BA203211820FFF7ECFE4FF4FA705A
:100FA00000F0AEF942F2107001F09EF841F2883084
:100FB00001F09AF840F6C41000F0A2F910BD00004C
:100FC000446F6F72204F70656E0000002DE9F04194
:100FD00004460D4600F073FA00F048FA012000F0D4
:100FE00068FA072000F073FA0C2000F07AFA201259
:100FF000FFF7DEFDE0B2FFF7DBFD2812FFF7D8FDBB
:10100000E8B2FFF7D5FD142000EB2420E1B208443C
:1010100000EB2520E9B200EB0108404600F040FA61
:101020004FF4FA60FFF7E0FC07460FB17E7A00E06C
:10103000FF263046BDE8F08170B500F040FA00F0C0
:1010400015FA012000F035FA032000F040FA0D20D7
:1010500000F047FA1126304600F022FA4FF4FA6009
:10106000FFF7C2FC05460DB16C7A00E0FF24204674
:1010700070BD2DE9F041054600F021FA00F0F6F9C7
:10108000012000F016FA042000F021FA022000F0FE
:1010900028FA2846FFF78CFDEF1D384600F000FACD
:1010A0004FF4FA60FFF7A0FC06460EB1747A00E038
:1010B000FF242046BDE8F08170B500F000FA00F092
:1010C000D5F9012000F0F5F9032000F000FA012025
:1010D00000F007FA0526304600F0E2F94FF4FA6016
:1010E000FFF782FC05460DB16C7A00E0FF24204634
:1010F00070BD2DE9F04781460D4616461F4600F0AB
:10110000DEF900F0B3F9012000F0D3F9082000F077
:10111000DEF91B2000F0E5F94846FFF749FD2812EB
:10112000FFF746FDE8B2FFF743FD3012FFF740FD41
:10113000F0B2FFF73DFD09F1240000EB2520E9B2F4
:10114000084400EB2620F1B200EB010A504600F003
:10115000A7F94FF4FA60FFF747FC044664B194F82E
:101160000980E07AA17A00EB01203880607B217B46
:1011700000EB0120788001E04FF0FF084046BDE819
:10118000F08770B500F09BF900F070F9012000F0D5
:1011900090F9032000F09BF9032000F0A2F9072644
:1011A000304600F07DF94FF4FA60FFF71DFC05466C
:1011B0000DB16C7A00E0FF24204670BD70B500F0E0
:1011C0007EF900F053F9012000F073F9032000F0DC
:1011D0007EF9052000F085F90926304600F060F917
:1011E0004FF4FA60FFF700FC05460DB16C7A00E0A1
:1011F000FF24204670BD2DE9F04106460C4600F064
:101200005EF900F033F9012000F053F9062000F0F8
:101210005EF9062000F065F93046FFF7C9FC2012A0
:10122000FFF7C6FCE0B2FFF7C3FC06F10D0000EBD0
:101230002420E1B200EB0108404600F031F94FF400
:10124000FA60FFF7D1FB07460FB17D7A00E0FF257A
:101250002846BDE8F081000000B589B001210846AC
:1012600000F058F80121042000F074F818208DF8DF
:1012700023000420ADF8200003208DF8220008A9E7
:101280001E48FFF7A3FA4FF0804000F06FFA0020ED
:10129000ADF81A00ADF8160044F61F60ADF818005E
:1012A0004720ADF8140000208DF81C0005A94FF070
:1012B000804000F0BFFA0121880700F02BFA0122DC
:1012C0001146900700F049FA01A800F0A5FA602045
:1012D000ADF804000020ADF80C000120ADF80600C8
:1012E0000020ADF80A0001A94FF0804000F044FA58
:1012F0000121880700F014FA09B000BD0008014080
:1013000010B5044621464FF0804000F08FFA10BD22
:101310007047000029B1064AD2690243044BDA61E2
:1013200004E0034AD2698243014BDA61704700004E
:101330000010024029B1064A12690243044B1A61A7
:1013400004E0034A12698243014B1A6170470000AE
:101350000010024029B1064A92690243044B9A6187
:1013600004E0034A92698243014B9A61704700008E
:101370000010024029B1064AD2680243044BDA60E9
:1013800004E0034AD2688243014BDA6070470000F0
:101390000010024030B500210022002400232D4D12
:1013A0006D6805F00C0121B1042905D0082923D16D
:1013B00005E0294D056022E0274D05601FE0254D21
:1013C0006D6805F47012234D6D6805F480340225B4
:1013D00005EB92421CB9214D554305600BE01D4DB4
:1013E0006D6805F400351DB11C4D5543056002E0E4
:1013F000194D5543056002E0174D056000BF00BF61
:10140000144D6D6805F0F0010909154D6B5C056818
:10141000DD4045600F4D6D6805F4E061090A104D2F
:101420006B5C4568DD4085600A4D6D6805F4605170
:10143000C90A0B4D6B5C4568DD40C560054D6D68A4
:1014400005F44041890B074D6B5CC568B5FBF3F5AE
:10145000056130BD0010024000127A0000093D0015
:1014600022000020320000207047000010B50B4918
:101470000968080EFFF79CFB08480068C0F30740A6
:10148000FFF796FB05480088C0F30720FFF790FBA5
:1014900002490878FFF78CFB10BD0000AC0C00205F
:1014A00010B504462012FFF783FBE0B2FFF780FB84
:1014B00010BD10B504462046FFF77AFB10BD10B5ED
:1014C000EF20FFF775FB0120FFF772FB10BD10B591
:1014D0000446C4F30720FFF76BFBE0B2FFF768FB9D
:1014E00010BD10B504462046FFF762FB10BD10B5D5
:1014F00000F002F810BD00000CB500200190009033
:101500003348006840F480303149086000BF3048FB
:10151000006800F4003000900198401C0190009891
:1015200018B90198B0F5A06FF1D12948006800F40E
:10153000003010B10120009001E0002000900098E0
:10154000012843D12348006840F010002149086079
:101550000846006820F0030008600846006840F074
:10156000020008601A484068194948600846406807
:1015700048600846406840F480604860084640681B
:1015800020F47C1048600846406840F4E810486049
:101590000846006840F08070086000BF0C48006892
:1015A00000F000700028F9D00948406820F00300DE
:1015B000074948600846406840F00200486000BFA4
:1015C0000348406800F00C000828F9D10CBD000069
:1015D00000100240002002407047042808D14FF05C
:1015E000E021096941F004014FF0E022116107E0B8
:1015F0004FF0E021096921F004014FF0E022116170
:101600007047704710B51348006840F00100114959
:10161000086008464068104908400E49486008467E
:1016200000680E4908400B4908600846006820F42D
:10163000802008600846406820F4FE0048604FF4AF
:101640001F008860FFF753FF4FF0006004490860F7
:1016500010BD0000001002400000FFF8FFFFF6FE82
:1016600008ED00E010B50121044800F065F818B15C
:101670000121024800F051F810BD000000040040B4
:1016800010B50121094800F057F868B108480088F2
:1016900040F40040064908800121044800F03DF86C
:1016A0000021024800F03CF810BD00000008004096
:1016B000BA0C00207FB505460C4601210420FFF737
:1016C00029FEADF80450ADF800400020ADF806004A
:1016D000ADF8020069460E4800F0ACF80122114650
:1016E0000B4800F03AF80121094800F019F81E20D3
:1016F0008DF80C0000208DF80D0002208DF80E00F2
:1017000001208DF80F0003A8FFF764FA7FBD0000E9
:1017100000080040CA4302827047CA4302827047F1
:1017200021B1028842F00102028004E002884FF6F3
:10173000FE731A400280704730B502460020002335
:101740000024158A05EA0103958905EA010413B10D
:101750000CB1012000E0002030BD1AB183890B4399
:10176000838102E083898B438381704701894FF62F
:10177000F87211400181704770B5002400220023E7
:10178000058C4FF6FF6635400584028C8388848B78
:101790004FF68F752C404FF6FC752C400D882C436E
:1017A0004FF6FF552A400D894FF6FF7606EA0525CC
:1017B0002A434D8806EA05252A43154DA84202D042
:1017C000144DA8421DD14FF2FF752A404D894FF6A6
:1017D000FF7606EA05252A434FF6FF352A408D8815
:1017E00006EA05252A434EF6FF752B404DF6FF7598
:1017F0002B408D8906EA05152B43CD8906EA051590
:101800002B4383808483CD888587028470BD00004C
:10181000002C014000340140002101804180818082
:10182000C180018141818181C18170478187704779
:1018300081847047002202881D4B98420ED01D4BB8
:1018400098420BD0B0F1804F08D01B4B984205D086
:101850001A4B984202D01A4B984204D14FF68F731C
:101860001A404B881A43174B984207D0164B9842A0
:1018700004D04FF6FF431A40CB881A4302808B886E
:1018800083850B8803850A4B98420BD0094B9842FD
:1018900008D00E4B984205D00D4B984202D00D4B0C
:1018A000984201D10B7A038601238382704700009E
:1018B000002C0140003401400004004000080040BA
:1018C000000C0040001000400014004000400140A7
:1018D000004401400048014010B540F225512A481B
:1018E00000F02AF901284ED1274800F0EDF92749E8
:1018F000087040F22551244800F0B4F823480078DD
:1019000031280CD1FFF7A8F921A202211020FFF7FE
:1019100031FA22A204211420FFF72CFA33E01B48ED
:101920000078322807D1FFF797F91FA20321012081
:10193000FFF720FA27E015480078332807D1FFF792
:101940008BF91DA203210C20FFF714FA1BE00F48AE
:101950000078342802D1FFF719FB14E00B48007817
:10196000352810D1FFF778F916A200210620FFF7DD
:1019700001FA18A203210620FFF7FCF919A205219C
:101980000620FFF7F7F910BD0038014018000020CD
:10199000506C6561736520466163650074686520FD
:1019A00043616D657261000056616C6964617469C0
:1019B0006F6E204661696C00436865636B20466109
:1019C000636500005369676E20696E2053797374F4
:1019D000656D00004B352046696E676572707269EF
:1019E0006E7400004B362048756D616E2046616351
:1019F0006500000010B540F22551164800F0A9F826
:101A0000F8B1144800F060F9C4B21348008800F43B
:101A10000040B0B910480088B0F5C87F12DA002144
:101A20000E48FFF705FF0C48008818B901210B4844
:101A3000FFF776FE08490888411C074A11800849CB
:101A40000C5405E00448008840F400400249088036
:101A500010BD000000480040BA0C00200008004003
:101A6000BC0C002010B50022002340F66A14A142ED
:101A700000D100BF0A1201249440A3B2DC430480C9
:101A800010BD21B1828942F40052828104E0828932
:101A90004DF6FF731A4082817047000010B504466E
:101AA0002048844209D101218803FFF763FC00210B
:101AB0004FF48040FFF75EFC32E01B48844209D1BE
:101AC00001214804FFF736FC00214FF40030FFF7F6
:101AD00031FC25E01548844209D101218804FFF733
:101AE00029FC00214FF48020FFF724FC18E0104867
:101AF000844209D10121C804FFF71CFC00214FF4E6
:101B00000020FFF717FC0BE00A48844208D10121AE
:101B10000805FFF70FFC00214FF48010FFF70AFCC7
:101B200010BD000000380140004400400048004063
:101B3000004C00400050004002460020B1F5007FFC
:101B400000D100BF13880B400BB1012000E0002042
:101B5000704770B50246002400230025002040F69F
:101B60006A16B14200D100BFC1F3421501F01F0354
:101B7000012606FA03F3012D02D19689334006E0CF
:101B8000022D02D1168A334001E0968A33400C12AE
:101B9000012606FA04F41688344013B10CB1012072
:101BA00000E0002070BDF0B50346002400260025AB
:101BB000002040F66A17B94200D100BF1846C1F3B1
:101BC000421401F01F06012707FA06F5012C01D186
:101BD0000C3004E0022C01D1103000E014301AB1B6
:101BE00007682F43076002E00768AF430760F0BD56
:101BF0002DE9F04786B005460E460024A24600BFF8
:101C0000A1460027B08900B100BF2F462C8A4CF6B0
:101C1000FF700440F08804432C82AC894EF6F31028
:101C20000440B08831890843718908430443AC817A
:101C3000AC8A4FF6FF400440B0890443AC8201A84F
:101C4000FFF7A8FB1F48874202D1DDF810A001E092
:101C5000DDF80CA0A88900F4004040B10AEBCA00EE
:101C600000EB0A1031684900B0FBF1F807E00AEB1D
:101C7000CA0000EB0A1031688900B0FBF1F864205B
:101C8000B8FBF0F004012009642101FB1089A88948
:101C900000F4004040B1322000EBC900B0FBF1F08D
:101CA00000F00700044308E0322000EB0910642133
:101CB000B0FBF1F000F00F0004432C8106B0BDE84A
:101CC000F08700000038014001468888C0F3080012
:101CD0007047C1F308028280704700BFFEE7000032
:101CE00070B50446002520E004F0800018B1012002
:101CF0000F49086002E000200D490860FEF7FCFD76
:101D000001200B49091F0860FEF7F6FD0020094974
:101D1000C1F8A001072D02D1012005490860600625
:101D2000040EFEF7E9FD681CC5B2082DDCDB70BDB2
:101D3000A48121420080214210B50446FEF704FE32
:101D40007820FFF7CDFFFEF72BFE0020FFF7C8FF3E
:101D5000FEF726FE2046FFF7C3FFFEF721FEFEF743
:101D60000DFE10BD10B50446FEF7EEFD7820FFF71E
:101D7000B7FFFEF715FE4020FFF7B2FFFEF710FE9B
:101D80002046FFF7ADFFFEF70BFEFEF7F7FD10BD97
:101D90000FB4084B10B504A902AA039800F01CF870
:101DA000044602A9002000F077F9204610BC5DF837
:101DB00014FB00009920000802E008C8121F08C1A7
:101DC000002AFAD170477047002001E001C1121FBC
:101DD000002AFBD1704700002DE9FF4F8DB09B46D4
:101DE0000F460446002606E025280BD05A460F99D8
:101DF0009047641C761C20780028F5D111B030463D
:101E0000BDE8F08F0025A8460122984900E005436F
:101E100014F8013F203B02FA03F00842F7D1207882
:101E20002E2817D114F8010F45F004052A280ED0EA
:101E30006FF02F022078A0F1300109290AD808EBB1
:101E4000880102EB410100EB0108641CF2E757F83E
:101E5000048B641C20786C280DD004DC4C2812D034
:101E60006A2811D104E074280DD07A280CD10AE038
:101E700045F4001507E0617845F48015814202D1F0
:101E8000641C05F58015641C2278692A45D008DC9D
:101E9000002AB3D0582A69D0632A10D0642A08D106
:101EA0003BE0702A67D0732A13D0752A5CD0782A59
:101EB0005CD010465A460F999047761CD3E017F82D
:101EC000040B8DF8000000208DF80100E946012088
:101ED00003E057F8049B4FF0FF3069074FF000050F
:101EE00001D40AE06D1C45450DDA8542FADB19F88C
:101EF00005100029F6D106E06D1C8542FCDB19F8BF
:101F000005100029F8D12E4404E019F8010B5A46B7
:101F10000F9990476D1EF8D2A5E00A200021CDE967
:101F20000801C5F3025002280DD001CFC117031ECE
:101F300071F100030DDA4FF0000CD0EB0C006CEBEC
:101F400001012D2308E0FF1D27F00707F7E8020134
:101F5000EDE72B0504D52B238DF8283001233BE03A
:101F6000EB0739D02023F7E70A2000E010200021FA
:101F7000CDE9080107E01020002145F00405CDE976
:101F800008014FF00808C5F3025002280FD001CF16
:101F900000214FF0000A2B071FD5702A0DD0DDE974
:101FA00008C38CF0100C5CEA030C0CD015E0FF1D8C
:101FB00027F00707F7E80201EBE740228DF8282019
:101FC0004FF0010A0BE050EA010306D030238DF8F0
:101FD00028308DF8292002239A46582A04D024A2BA
:101FE0000DF120090B9209E026A2F9E7DDE90823AB
:101FF000FEF7B4F80B9B9B5C09F8013D50EA010227
:10200000F4D1ADEB090020300890680701D44FF0FF
:1020100001080899884502DDA8EB010000E00020D6
:102020008046002506E00AA85A46405D0F99904771
:102030006D1C761C5545F6DB04E030205A460F999E
:102040009047761CB8F10001A8F10108F5DC05E025
:1020500019F8010B5A460F999047761C0899481EAB
:1020600008900029F4DC641CC5E600000928010082
:1020700030313233343536373839616263646566FE
:1020800000000000303132333435363738394142C0
:1020900043444546000000000A68531C0B60107062
:1020A0007047000010B56FF00400FFF796FA0A4879
:1020B00000680A49B0FBF1F0094908700846007849
:1020C00000EB4001C1EBC0104FF6FF7101EAC00008
:1020D0000449088010BD00000000002000127A00B2
:1020E00014000020160000200146114A12884A43BD
:1020F0004FF0E0235A6100229A611A46126942F0B9
:1021000001021A6100BF4FF0E022106900F00102E5
:102110001AB100F48032002AF5D04FF0E0221269A3
:1021200022F001024FF0E0231A6100229A61704709
:1021300016000020FEF73EFB304908604FF4A06017
:10214000FEF780FDFFF7AEFF4FF4614000F0D0F9DD
:10215000FEF78EFC4FF4165000F06AF9FEF79EFD74
:10216000FEF77AFD26A200210620FEF703FE28A234
:1021700003210620FEF7FEFD29A205210620FEF719
:10218000F9FDFFF769F840F6C410FFF7B9F833E03E
:10219000002027490870FEF7ABFC26490870084666
:1021A0000078012805D100200870FEF755FDFEF7E4
:1021B00063F820480078032806D100201D490870E4
:1021C000FEF74AFDFEF720FA1A480078052813D1D9
:1021D000002018490870FEF73FFD17A202211020C9
:1021E000FEF7C8FD18A204211420FEF7C3FD31201C
:1021F00000F06EF900F03AF8CAE70000A80C0020E1
:102200005369676E20696E2053797374656D0000A1
:102210004B352046696E6765727072696E74000096
:102220004B362048756D616E204661636500000085
:10223000B60C0020B80C0020506C6561736520500E
:1022400072657373000000004B3120476F204261BC
:10225000636B000010B50246012000E050430B0004
:10226000A1F10104E1B2F9D110BD000010B586B0B2
:102270007AE00020FEF73CFC47490870FEF71CFF9F
:102280000446002C70D10120FEF7F3FE0446002C1A
:102290005ED105AB632200210120FEF72AFF044630
:1022A000002C28D13DA20221FEF764FD0020404908
:1022B0000870BDF81630BDF814203EA16846FFF73F
:1022C00067FD6A4604210820FEF754FDBDF814009E
:1022D00018B9342000F0FCF806E0BDF8140001281D
:1022E00002D1352000F0F4F84FF47A60FFF7FCFEDD
:1022F000FEF74CFE3CE02E480078401C2C4908704C
:10230000FEF7AAFC2FA203210120FEF733FD3220A5
:1023100000F0DEF84FF47A70FFF7E6FE244800780C
:10232000032811D1002022490870FEF795FC29A24C
:1023300003210A20FEF71EFD332000F0C9F840F209
:10234000DC50FFF7D1FE13E040F2DC50FFF7CCFE8B
:10235000FEF782FC23A202211020FEF70BFD25A22E
:1023600004211420FEF706FD0B480078012880D1D7
:1023700000BFFEF771FC22A200210620FEF7FAFC46
:1023800023A203210620FEF7F5FC25A20521062045
:10239000FEF7F0FC06B010BDB80C00202020D6B827
:1023A000CEC6D1E9D6A4B3C9B9A62020000000004A
:1023B000B60C00202049443A256420B5C3B7D63A6C
:1023C0002564200056616C69646174696F6E2046F3
:1023D00061696C00436865636B2046696E6765726E
:1023E00000000000506C6561736520507265737366
:1023F000000000004B3120476F204261636B0000FA
:102400005369676E20696E2053797374656D00009F
:102410004B352046696E6765727072696E74000094
:102420004B362048756D616E204661636500000083
:1024300010B586B00446012144F20400FEF78AFF7D
:102440004FF40070ADF8140003208DF8160018202A
:102450008DF8170005A91C48FEF7B8F94FF4806005
:10246000ADF8140004208DF8170005A91648FEF7F2
:10247000ADF925208DF8000003208DF801008DF8BE
:10248000020001208DF803006846FEF7A3FB0194CB
:102490000020ADF80800ADF80A00ADF80C00ADF86A
:1024A00010000C20ADF80E0001A90848FFF7A0FBB2
:1024B000012240F225510548FFF775FB0121034831
:1024C000FFF7DFFA06B010BD0008014000380140F8
:1024D00010B5044621460548FFF7FBFB00BF8021ED
:1024E0000248FFF729FB0028F9D010BD0038014051
:1024F00010B586B0044601210820FEF72BFF01210C
:102500008804FEF707FF2A48FFF7C8FA4FF48060F7
:10251000ADF8100003208DF8120018208DF813007C
:1025200004A92448FEF752F94FF40060ADF81000FA
:1025300004208DF8130004A91E48FEF747F9009403
:102540000020ADF80400ADF80600ADF80800ADF8C5
:102550000C000C20ADF80A0069461548FFF748FB4F
:1025600001211348FFF78DFA012240F2255110484E
:10257000FFF719FB27208DF8140002208DF81500B5
:1025800003208DF8160001208DF8170005A8FEF72E
:1025900021FB41F61F416320FFF78CF8002006491C
:1025A000088000210548FFF7BBF806B010BD000009
:1025B00000480040000C0140BA0C00200008004018
:1025C000E025000800000020BC0C000022020008EA
:1025D000D02E0008BC0C002024070000C81D0008F5
:1025E0001184A24A04000912010203040607080923
:1025F000291A691E05150204060872F852331C10C8
:102600000C0603912C40C07803112C043F040321D5
:10261000367088FC0830261820FF211E14F008F0C0
:1026200033E0184D211C031E11338870000C101E5E
:102630002123241927211010160E45E01804022525
:10264000071820403D020418E0692C2018070717DE
:102650004080F08040403F0202010F0102283AF022
:10266000CA1C01011F04912B80B066A9EB4901919E
:102670002A30A5592C146018043C6018061D1EE071
:1026800010080810721F0F102020100FF05310F8C0
:102690003620203F20203C700808C21E302824220B
:1026A00021441E3008888848082E1820202011CC8C
:1026B0003BC0203227070424243F241AF820230893
:1026C000084B19212036E0108888184B0F11101E76
:1026D000380808C8382021523F1A702E29608F1CF4
:1026E000222121221C90111D31222211901961CA30
:1026F000C0C26A80C659081C40201050170102044D
:102700000810204A4001114A04012119152A4032BB
:1027100019251B0402F21B7048D13AF0501A360FEB
:102720001EC030C828E87028080718272423140B77
:102730006F2A387E280D203C23020227382008F813
:1027400088889F4B203FF01BC0303F1B0838301952
:102750001019781B08F80F194039201B100F103E74
:102760008888E8081010AC23201810112A035E296D
:1027700040223829402C221E024019A41809F808CA
:10278000203F21010121252A08522981294241495E
:10279000112EC08080807F0E2FF888C02818085026
:1027A0001C0126382F2940292F29801B2030101288
:1027B000F81AF81413203F190229204B30C0601A70
:1027C0002074123F4BE010B06B0F10B029D01AF0FC
:1027D000301980220179203F18242438504FC04CF2
:1027E000888870C0140C30204B7088C117382021A5
:1027F00021221C3A189F4A188239A049D0112A1F59
:1028000090121F240878881BC838151C07380E60E2
:10281000191A1AF8201114033C0714073C03481432
:10282000081868808068180820302C03032C30209A
:102830000838C82F5950298F29102F2038262120D9
:1028400020681145FE020202257F4040401A0CE03C
:10285000611C0106380B191D42FE191D527F1A0416
:10286000120211045A80011930D91D391621180895
:1028700019242222223F20AB390F115F3F11202063
:10288000110E21311A0E104B2011104B88F8102A0E
:1028900010B359401A1F3F2B22130F16F088888857
:1028A000181A20D029D1497A21176B9494949360F7
:1028B0003960190F4C203F21F35480989879305992
:1028C000121AC02719D1193039311F203F24022D87
:1028D00030212A0812893069D7294B2903190BC9DD
:1028E0006079A019BF2B201FDD390F9C80FFA1E06C
:1028F000191229D03BA0FF0C3950194112208A012E
:10290000C01B3324012A190F3AE0413952290F39EB
:102910002349603C103F202C29053F010E3008065A
:102920000170291038080F300C030C300F2C49A10E
:102930004E312E0E31200C29621D818E70183059B7
:10294000D1215721302C22213055807C0202443F76
:10295000404072FF39083C02027C8F5440403F4E99
:1029600002010202042F4117101010FF10901009ED
:102970003F484844444442701D0444827F662BFF14
:1029800049011941200F2030AC63100808F8090EE6
:1029900008F80808180E22672212928040211608B3
:1029A00016214088200F1010D0FF9014E4AFA4A48B
:1029B000A4AFE4041B040377100B894B2A1A0E1AE8
:1029C0002A4B888019F61808FF2020080808FF0401
:1029D0001AF870100F30100F884821110D030D11D7
:1029E000214181151060028C16FE02F202FE2AF8C7
:1029F000B1100B04047E018047300F10272C478054
:102A00007FB71342CC2A90013EFF10111610E6103A
:102A10000C1028603F1010010E3040F0172424A441
:102A2000FE23222B3E2201223E1808080601FF0148
:102A30000640BD1A7F043241100EFC040404141534
:102A4000569454341404041440300F1F0101014102
:102A5000817F061B050310180EEF242480E49C10D0
:102A60005454FF547C101C480E7F215126182744D3
:102A700045455F454544A0380B109252321E3252F4
:102A8000921210A011100B211840807F0830040909
:102A9000312008101010FF1010F04AF8E01A806181
:102AA000191D211A7FFA19074E80FE8282FE053910
:102AB000E113403F3D20BF403F232A4F05200FFE3A
:102AC000225A8620102824E324281020202FFF04D7
:102AD0000827110DA01A055F112B02FA3B100A40BE
:102AE00020504C434C502040101008184884443F5C
:102AF000404458414E6058474025404042CC2D0448
:102B0000C40404E84204180C3F1048407F40407F52
:102B100041414120291F1E445454547F04334440F2
:102B2000147F20101FFF15151555957E39C0100C08
:102B30009020988888E98E8888A8982C024281B6CF
:102B40004008844B28102847802A240137FC222281
:102B50002223222A02013C42827F082B0202111A00
:102B6000C20819E11901190F1A40795904290111F4
:102B70003010201808EAACA8A8AFA8A8ACEA08282A
:102B8000182A3E383FFF020212221E501BF2920109
:102B90002AFE051AF2502C0404FFC81F070404443F
:102BA000847FD0CA80010112380B020C8060804003
:102BB000300FC8085F180F02027E018040201806FF
:102BC0000106182040301708488808C8381A90E8CD
:102BD00019EC211E20100C0304291B4380E8413A04
:102BE000FEA81AFF354310081C7F2020283A3FBF5B
:102BF00012781B02E2FA5AFE041AE2E112FF1D08E3
:102C0000060116044B024C421BF888011009080803
:102C1000FF08090AC8081480601F100C10201F80CC
:102C2000402116182641F81D080808F804497E229C
:102C3000F0300F1030101F088848300E01408040DF
:102C40003F1C40301E1A291E299E111810818141F7
:102C500021110D0301030D11214181819F180902EA
:102C6000FA02FE4020D8173F19222F8047300F105C
:102C7000675F1C081621E019FB894019412C404070
:102C800042013A7F0619D8171010D0FF9010200883
:102C9000FC24E4242223E21B0403C21F83601F8060
:102CA0004126A0228014020CC02EF808484848C2D1
:102CB000128A2C02027F9820091E925E2017384645
:102CC000F1158060F8071A3EFC3422223E220110E2
:102CD0000DFF2011090503FF030509112018080441
:102CE0000484E41C07240116A4642404041B0201C8
:102CF000602F020242827F0201115D808082920178
:102D00001DFE808080A0180C22241048807F0408BB
:102D1000182422A0517501E21CE037804020100CDD
:102D2000031D030C30403011151088C4332BBEAA8C
:102D3000012ABEAF39605B0A126229301C90888676
:102D40005A1E838C1020402119111318072A40C5E0
:102D500041199F180D5C44C42010E82724E4342C4A
:102D6000E040180E7F10103F80601F09093F49891D
:102D70007F905342CC92FF2C3F9048432B07185032
:102D800049203009FC24A4242222A362280E4020DA
:102D90001F20584750484542454850C0500CFE023D
:102DA00002F2121212F20202FE300C7F20202724BF
:102DB00024242720207F151060028C1E4454545474
:102DC0007F041344401D04047E016D3E1515155506
:102DD0009520180F0C4424140405060404142444FC
:102DE000140C601B4041012A7F052A405F197C1E9C
:102DF00024A4643DA653142424041E40300F101351
:102E00006F1AFF0414121010105DD6B8CEC6C4A3FA
:102E1000BFE9B2E2CAD4B3CCD0F2BCFCCCEDBCD397
:102E2000C9BEB3FDD1E9D6A4C7EBB0B4CAD6D5FDAF
:102E3000B3A3D4D9D2BBB4CEB6D4B1C8C1BDB3C983
:102E4000B9A6CAA7B0DCC9FAB0E5BCF5B1A3B4E62F
:102E5000C2BCC8EBB5C3B7D6C8B7C8CFB7B5BBD827
:102E6000C7E5BFD5BFE28060202122232425262785
:102E700028292A2B2C2D2E2F30313233343536375A
:102E800038393A3B3C3D3E3F40414243444546474A
:102E900048494A4B4C4D4E4F50515253545556573A
:102EA00058595A5B5C5D5E5F60616263646566672A
:102EB00068696A6B6C6D6E6F70717273747576771A
:102EC00078797A7B7C7D7E1AFF01714201000000D7
:0400000508000101ED
:00000001FF
